:020000040800F2
:10000000882E0020FDA6000835A4000837A40008AB
:1000100039A400083BA400083DA40008000000002B
:100020000000000000000000000000003FA40008E5
:1000300041A400080000000043A4000819A700081C
:100040001DA7000821A7000825A7000889A400080B
:1000500029A700082DA7000831A7000835A7000828
:1000600039A700083DA7000841A7000845A40008DB
:100070004BA4000851A4000845A7000849A70008A0
:100080004DA7000851A7000855A7000859A7000868
:1000900057A400085DA7000861A7000865A700082D
:1000A00069A700085DA400086DA7000871A70008F3
:1000B00075A7000879A700087DA7000881A7000898
:1000C00085A7000889A700088DA7000891A7000848
:1000D00095A7000899A700089DA70008A1A70008F8
:1000E000A5A70008A9A70008ADA70008B1A70008A8
:1000F00091A400088DA40008B5A70008B9A70008BE
:10010000BDA70008C1A70008C5A70008C9A7000827
:10011000CDA70008D1A70008D5A70008D9A70008D7
:10012000DDA70008E1A70008E5A70008E9A7000887
:10013000EDA70008F1A70008F5A700082DE9F14F89
:10014000B2B09946924600230691CDE900333C9A1D
:100150000F930DF14A0114914A7011E0329E5746F7
:100160002C4617F8011B0698B0470028069000F0AF
:1001700026810F98401C641E0F90F2D13296AA443B
:100180009AF80000252808D10021002209910A923E
:100190000B910C920D910E920FE06A464FF0FF31D9
:1001A000504601F07FF8050002D10F9800F066BEBE
:1001B000D4D50125E3E741F001011AF8010F202809
:1001C000F9D023280CD02B2804D02D2805D0302896
:1001D00009D00BE041F00201EFE741F00401ECE748
:1001E00041F00801E9E741F01001E6E72A280FD1C4
:1001F000D9F8002052F8040BC9F80020002811900B
:1002000003D54042119041F004010AF1010A14E0C3
:100210001192DFF8EC3B0AE01198984205DA00EB06
:10022000800402EB4402303A11920AF1010A9AF872
:100230000020A2F130000A28EED39AF800002E2800
:1002400003D04FF0FF32109229E01AF8010F2A284C
:1002500009D1D9F8000050F8042BC9F80000109219
:100260000AF1010A1BE02D280CBF0AF1010A002047
:1002700000221092DFF8882B0BE040B9109B9342CC
:1002800005DA03EB830504EB4504303C10940AF1D6
:10029000010A9AF80040A4F130030A2BEDD3ADF81F
:1002A00048100FF660309AF8001001F005F808B118
:1002B0001AF8010B8DF84A009DF84A00682805D10C
:1002C0009AF8000068280CD1622106E06C2804BF6F
:1002D0009AF800006C2804D171218DF84A100AF1B7
:1002E000010A1FA808901AF801BBBBF125012DD007
:1002F0001C3900F06181091F022940F25D810E392D
:100300002AD0491F00F0B384093900F05581891EB5
:1003100000F04985491E00F0F584491E022940F28B
:100320004B81091F00F0EE84491F00F0BA80491E7E
:1003300000F09D84491E65D0C91E21D0891E00F0A1
:100340009684C91E00F0938400F04CBD25238DF8DF
:100350007C30012109912AE06C208DF84A00D9F8FF
:10036000000050F8042BC9F80000002A43D114996A
:10037000487800283DD04FF0FF340FF6902012E06F
:100380009DF84A006C28EAD0D9F8000050F8044BD8
:10039000C9F800000794D4B91499487898B14FF07F
:1003A000FF340FF6842000F0A1FF201A07D1329805
:1003B0001FAA04A900F065FD00287FF5E1AE4FF00B
:1003C000FF3000F05BBD0FF67C200790EFE7109D3B
:1003D000002D04D5204600F0A9FF044607E02A4678
:1003E000204600F0BFFF002814BF041B2C460A94CF
:1003F000DDE70FF65422329804A900F0C8FD00286A
:10040000D5D5DCE7D9F8001051F8040BC9F8001075
:1004100020F00004002121F0FF351FABCDE9044599
:100420000793DDE9042308993C2413B90AB910980D
:1004300098B102F00F053035641EEEB23A2EA8BF17
:100440002735120942EA03721B090D5508BF002A1D
:1004500003D007980D19A842EBD308190790C4F1EF
:100460003C0210980A92824209DABDF84810821ABA
:100470004FF6EF7001400C92ADF8481097E7002856
:1004800095D59DF8480000F0140010288FD1119BDD
:1004900009990C985B1A1B1A9A1A002A87DD0C928C
:1004A00085E71499487820B14FF0FF340FF69C107F
:1004B00079E79DF84A00622862D0682819D06A2836
:1004C00040D06C2806D071284DD074282DD07A28C1
:1004D0001ED064E0D9F8001051F8040BC9F80010E0
:1004E00020B94FF0FF340FF67C105CE70F990160E4
:1004F0005DE7D9F8001051F8040BC9F8001020B9D5
:100500004FF0FF340FF65C104DE70F9901804EE776
:10051000D9F8001051F8040BC9F800100028E5D1F3
:100520004FF0FF340FF63C103DE7D9F8001051F8BA
:10053000040BC9F800100028D8D14FF0FF340FF693
:10054000241030E7D9F8001051F8040BC9F8001056
:1005500020B94FF0FF340FF60C1024E70F9AD31791
:10056000C0E9002323E7D9F8001051F8040BC9F8BB
:1005700000100028F2D14FF0FF340FF6E80012E728
:10058000D9F8001051F8040BC9F8001020B94FF049
:10059000FF340FF6D00006E70F99017007E7D9F88E
:1005A000001051F8040BC9F8001000289ED14FF03C
:1005B000FF340FF6B000F6E6D9F80020D21D22F085
:1005C0000702C9F80020D2E900010832C9F800206A
:1005D000CDE90401C80F02D009982D210AE0BDF829
:1005E0004800810702D509982B2103E0C00705D5F3
:1005F000099820211FAA1154401C0990DDE9042309
:1006000009991FA8CDE92E2308444BF02001612948
:10061000079015AC0BD01099002902D50621109136
:1006200005E001BF4BF02001672901221092DDE9AE
:10063000042359004915491C10D11A030ED0ABF1FF
:10064000610503211A2D0A9102D20FF6A43101E0AF
:100650000FF6A031032200F0B1FEA8E659004915BB
:10066000491C0AD11A0308D1ABF1610503211A2DE7
:100670000A9116D30FF68431ECE7DDE90401CDE9E8
:100680003001DDE9302323F00047B7F5801F22F069
:1006900000060DD20022002F08BF002E029203D1C7
:1006A00016E00FF65431D5E702AA00F093FE0FE0F2
:1006B000DFF8EC0ADFF8EC1A00EB17500290DDE9E6
:1006C00030234FF0FF301940DFF8DC7A1040394317
:1006D000CDE904014BF0200061280DD107983021AD
:1006E0000170821CBBF1610F07920CBF7821582169
:1006F00041700998801C0990DDE9040120F0000296
:1007000031F0004308BF002A02D10026002571E124
:100710004BF02008B8F1610F40F0BE80109800281F
:1007200047BF21210391401C0390039FDDE92E0167
:100730007F1C00220023DDE9044500F083FE0299BE
:100740008DF8542038BF85F00045091F002F029115
:100750000DF155065DDDDFF8541ACDE9302140F288
:10076000FF732E93204629460022002300F082FECC
:100770004FD24800400D00F11C0215D0002A13DDB5
:100780002E9B9A420ADBDDE9300121F0004205F0A0
:1007900000400243DDE93001114611E06FF31E51C4
:1007A00041EA025120460BE024F0000035F0004100
:1007B00008BF00280FBF29461C22294600F072FE00
:1007C00004460D4600F00CFFFF1F002F804609DD98
:1007D00000F024FF02460B462046294600F030FF79
:1007E00004460D46F01D0721B8F1000F0CDD491E2F
:1007F0005EBF08F00F0200F8012D4FEA2818F3D56C
:1008000002E0002200F8012D491EFAD5C61D002F76
:10081000A8DC0DF15500361A03988642D8BF304641
:1008200000280DF1550430D4B04206DA0DF155011F
:100830000A5C082AA8BF0F2100DA0021024615AB86
:10084000134400E0401E13F80159521E8D42F9D0A6
:100850000F2904D10DF155018B5C5B1C8B54002AD0
:1008600004D50299091D15AC401C0291411E0CD4FF
:100870006218ABF13A0613783033DDB23A2DA8BFD7
:10088000F318491E02F80139F5D51099002940F1F5
:10089000AF80421E1092ABE00299DFF8142947F2B4
:1008A0009750414391FBF2F2DDE92E45029225F08B
:1008B0000045D2F1070204DD2046294600F04CFC39
:1008C0000BE052420020DFF8EC1800F045FC024635
:1008D0000B462046294600F025FF0446B8F1660F76
:1008E000109806BF029F0A3706273F18142FC8BF6B
:1008F000142730208DF854000D460020DFF8B8187A
:10090000CDE92E010DF15506002F33DD2046294695
:1009100001F02CF801460A4606F1080304200A26D5
:10092000B2FBF6F606EB860EA2EB4E02303203F86F
:10093000012C0A22B6FBF2F202EB820EA6EB4E0667
:100940003036401E03F8026DE9D1083F002F03F155
:100950000806D9DD084601F01DF802460B46204680
:10096000294600F06DFEDDE92E2301F021F8044652
:100970000D46CBE70DF15500361A0DF1550404E094
:100980000298401E761E0290641C20783028F7D012
:10099000B8F1660F02D10299491C04E0B8F1650F65
:1009A0000CBF01210021109808188642B8BF701EA4
:1009B00000281DD4B04204DA215C3429C8BF392193
:1009C00000DC30210246631E9D1800E0401E15F831
:1009D0000169521E8E42F9D0392902D1A15C491C0D
:1009E000A154002A04D50299491C1C46401C0291BE
:1009F0000646029D00F05AFC406A0778DDF8408008
:100A000030B2002802DC01260FF2F4744BF0200013
:100A1000662808BF6D1C16D0672846D128B210F191
:100A2000040F48DB404546DA9DF848006D1C01077D
:100A300003D430B24045B8BF804628B2B8EB0008B6
:100A400048BF4FF000080FFA85FB07980A99BBF1E1
:100A5000000F00F3B2804A1C0A9230234354B8F1CD
:100A6000000F03DC9DF84800010704D50A98411CDB
:100A70000A9107990F5418EB0B0FB8BFC8F1000586
:100A80002DB268420D90A84432B29045B8BF464698
:100A9000079B0A9836B20B9632462146184400F05E
:100AA0008DFCA8EB06000E90CBE0BBF1610F17D1D7
:100AB0004FF0700B19E030B2404504DA9DF8481051
:100AC0000A0758BF8046B8F1010848BF4FF0000838
:100AD000BBF1670F14BF4FF0450B4FF0650B04E0FF
:100AE000BBF1410F08BF4FF0500B0A98411C0A910F
:100AF000B8F1000F079914F8012B0A5403DC9DF894
:100B0000480001071AD50A98411C0A91B8F1000F54
:100B100007990F5412DD761E30B2804507980A9B64
:100B2000B8BF464632B22146184400F047FC0A9945
:100B300036B271180A91A8EB06000D9007980A9931
:100B400008442AB2002A80F800B003D42B22427055
:100B5000811C04E02D2141701546811C6D4200204E
:100B60002EAA0A2409E02B4693FBF4F505EB850633
:100B7000A3EB460302F8013B401C2DB2002DF2DC32
:100B8000012806DC4BF02002652A04BF302201F860
:100B9000012B00282EAA08D1302001F8010B06E015
:100BA000401E135C303301F8013B0028F8DC079A43
:100BB0000A981044091A0B9143E0084431B22AB252
:100BC000914219DA32B2214600F0F8FB0A9936B2A6
:100BD0007118ABEB0606B8F1000F0A910D9603DC15
:100BE0009DF84800020704D5079847540B99491C03
:100BF0000B91CDF8388024E0214600F0DFFB0A9805
:100C0000761B5844B8F1000F0A9003DC9DF8481099
:100C10000A0703D5411C0A9107990F5430B2804549
:100C200007980A9BB8BF464632B204EB0B01184442
:100C300000F0C4FB0A9836B230180A90A8EB060000
:100C40000D909DF8480000F0140010287FF4AFAB21
:100C5000099A0A990D988A180B9982180E988A1881
:100C6000821811988242BFF6A2AB821A17E49DF84F
:100C70004A00622808D068280ED06A2814D06C2850
:100C80001FD0712810D01CE0D9F8001051F8040BC7
:100C9000C9F80010C0B21AE0D9F8001051F8040BDE
:100CA000C9F8001080B212E0D9F80020D21D22F05D
:100CB0000702C9F80020D2E900010832C9F8002073
:100CC00006E0D9F8001051F8040BC9F80010002113
:100CD000CDE904019DF8480001075AD5DDE9042358
:100CE000002B08BF002A54D04BF02000782850D1A8
:100CF00009981FA930220A54401C431C099301F88B
:100D000000B046E09DF84A00622808D068280ED05E
:100D10006A2814D06C281FD0712810D01CE0D9F894
:100D2000001051F8040BC9F8001040B21AE0D9F8CD
:100D3000001051F8040BC9F8001000B212E0D9F805
:100D40000020D21D22F00702C9F80020D2E90001DC
:100D50000832C9F8002006E0D9F8001051F8040B59
:100D6000C9F80010C117CDE90401002902D509987E
:100D70002D210AE0BDF84800810702D509982B21F2
:100D800003E0C00705D5099820211FAA1154401C73
:100D900009901FA809990144079104A8594600F039
:100DA00056F9FFF704BB9DF84A006C280BD00121CF
:100DB0000991D9F8000050F8041BC9F800008DF81B
:100DC0007C10FFF7F4BAD9F8000050F8041BC9F8FA
:100DD000000015914FF0FF3210920021169115AAD4
:100DE000FFF709BB25210122BBF1000F8DF87C1014
:100DF00009923FF4DCAA8DF87DB00221FFF7AABA70
:100E0000CBCCCC0C686A6C747A4C00007072696E42
:100E100074665F733A2062616420256C732061728E
:100E200067756D656E7400007072696E74665F73CD
:100E30003A2062616420257320617267756D656E6A
:100E40007400000000000000000000007072696E75
:100E500074665F733A20256E20646973616C6C6FF1
:100E6000776564007072696E74663A20626164200E
:100E7000256E20617267756D656E740033B0BDE8D4
:100E8000F08F2DE9FC410F46064690467A6B786953
:100E9000396ABC6A121AB869521A796A121AF86960
:100EA000521A121A97F83800141B41070FD4202049
:100EB000002C8DF800000ADD254601236A463946DC
:100EC000304600F07DF900285DD16D1EF5D17B69BB
:100ED00042463946304600F073F9002853D130209D
:100EE0008DF800003D6A002D09DD01236A46394670
:100EF000304600F065F9002845D16D1EF5D1BB697B
:100F0000FA683946304600F05BF900283BD13020C2
:100F10008DF800007D6A002D08DD01236A46394600
:100F2000304600F04DF970BB6D1EF6D1F868B96916
:100F3000FB6942183946304600F042F918BB3020B0
:100F40008DF80000BD6A002D08DD01236A46394690
:100F5000304600F035F9B0B96D1EF6D197F838007B
:100F600041070DD52020002C8DF8000008DD01235D
:100F70006A463946304600F023F920B9641EF6D19E
:100F80000020BDE8F6814FF0FF30BDE8F6812DE985
:100F9000F8470D46A3B02F6B002F8246904648BFFE
:100FA0006FF0004700F0D5FD696B401801AA0021E1
:100FB000C2E90011812828BF4FF0FF3044D2894692
:100FC0001EE0A74230DB6869201881280BD300217E
:100FD000696303AA29465046FFF753FF5FEA0009F9
:100FE00022D40020686103AB6E69224669469819D5
:100FF00000F0E4F9A6196E6158F8040BA0B13F1B8C
:10100000002F11DDD8F8001001AA684600F04CF955
:101010000446002C05D4D8F800000028D1D1641E65
:10102000CFD54FF0FF390EE0B9F1000F504604D193
:1010300003AA2946FFF725FF8146B9F1000F02D127
:10104000002068616863484624B0BDE8F0872DE958
:10105000FC4307466F293E6908BF082405D041F0CC
:101060002000782814BF0A2410243C25D7E9002347
:10107000642918BF69299046994605D1002B03D5EC
:10108000D8F1000869EB4909B9F1000F08BFB8F1C0
:10109000000F0CD1386B50B9082C39D197F83800B3
:1010A000010735D530203B2586F83B0030E08DF830
:1010B0000010404649462246E31700F04FFD30320B
:1010C000D0B26D1E3A28019504DB9DF80000A0F116
:1010D00051018A187255404649462246E31700F0EE
:1010E0003DFD80465FEA010908BFB8F1000F03D05B
:1010F000F86871198842DCD3082C09D197F83800B8
:10110000010705D5705D302802D06D1E3020705566
:10111000C5F13C02BA617119F960386B824208DA94
:10112000821A3A624FF6EF70398F01403987BDE875
:10113000F38300280ED597F8380000F0140010282B
:1011400008D17B6B7969386A5B1A1B1A9A1A002AD4
:10115000C8BF3A62BDE8F3832DE9D04306460F4687
:1011600014464FF00008DFF8549012E0E00707D56E
:1011700042464B463046394600F01AFC06460F46BA
:101180004046494642464B4600F012FC64108046F9
:101190008946002CEAD130463946BDE8D0830000AC
:1011A00002FCFFFFFFFF0F800000E03F0000F07F28
:1011B000A08601000000F03F84D797410000244042
:1011C000F8B505460E4617461C4600205CB117F8D8
:1011D000011BB068A847B06030B1F06A401CF062F3
:1011E0000020641EF3D1F2BD4FF0FF30F2BD0000CD
:1011F0006E616E004E414E00696E6600494E4600BB
:10120000300030B4002513E050F8042BD30744BF5E
:10121000A9F101039A18091F042942F8045BFAD2C4
:1012200013468C0744BF15809B1CC90748BF1D701F
:1012300050F8041B0029E7D130BC70471C487047A8
:1012400070B45368D41801E05B1C491E042B08DA03
:1012500000291FBF057804F8015B10F8016B002E10
:10126000F2D1536070BC704738B514461D4661B169
:10127000FFF7E6FF61686A6B204690476FF0010256
:10128000811A02D0491E01D001E003E005E00021EF
:10129000616032BD6FF0010032BD4FF0FF3032BDF2
:1012A000DA6B1047024BDFE7014BF9E70148704763
:1012B0000C120020D4110020C9B202788A421AB15F
:1012C0001CBF10F8012FF9E718BF00207047B1F5D7
:1012D000807F02D34FF0FF307047017001207047CC
:1012E0000078401E8041C043C00F704780B500B9F0
:1012F00006A005490B681BB122220021984701E096
:1013000000F0AFFC222002BD7C260020636F6E73CC
:10131000747261696E742068616E646C65723A20E3
:10132000626164206D6573736167650000F101039C
:10133000810704D010F8011B820781B1FAD102683D
:10134000A2F10131914311F0803104BF50F8042F14
:10135000F6E709BAB1FA81F100EBD100401CC01ADE
:1013600070472E00C9B2830706D0521E22D310F850
:10137000013B9942F7D11FE0083A13D302F104026E
:1013800041EA012141EA014150F8043B121F21BF0B
:101390004B40A3F1013C2CEA030C1CF0803FF3D03E
:1013A000C9B2001F083210F8013B521E28BF91EA53
:1013B000030FF8D818BF0120401E70474AB1000043
:1013C00011F8013B521E00F8013B1CBF11F8013B14
:1013D000F8E7704710B5144600F002F8226010BD1F
:1013E000C1F30A5343B14A0012F5001F28D2A3F2F9
:1013F000FE32A1EB0251704750EA410C20D001F0BF
:10140000004C31EA0C01B1FA81F204BFB0FA80F36A
:10141000D2180B3AB2F120032CBF00FA03F191402D
:1014200041EA0C013EBFC2F1200C20FA0CF3194333
:101430009040524240F2FD33D21A01EB0351704703
:10144000002270474FF4001C1CEB410F94BF1CEBB3
:10145000430F09E041EA030C50EA4C0C52EA0C0C31
:1014600003D2994208BF9042704714BF8B42824218
:10147000704743004FF4001C1CEB410F94BF1CEB62
:10148000430F09E041EA030C50EA4C0C52EA0C0C01
:1014900003D28B4208BF8242704714BF99429042E8
:1014A00070470000124254D440F2FF7C1CEA1153F2
:1014B0000FD0634531D09B1863453CBF01EB02510F
:1014C000704701F0004141EA0C510020AFF3008069
:1014D000704750EA410320D001F0004C91EA0C0122
:1014E0001CD0B1FA81F30B3B9A420DD9D21A994024
:1014F00051EA0C01C3F1200C20FA0CFC6144984025
:10150000531C40F2FF7CD7E7914041EA0C01C2F145
:10151000200C20FA0CF3194390407047B0FA80F386
:101520001533202BE0D3202AEED3203A203B9A42D9
:1015300009D9D21A00FA03F141EA0C010020531C28
:1015400040F2FF7CB8E700FA02F141EA0C0100200A
:101550007047524240F2FF7C1CEA11530DD06345A4
:10156000DBD0B2EB030C3CBFA1EB025170470CF196
:10157000010221EA035141F4801150EA410CCCD020
:1015800001F0004C352A27DC30B481EA0C01B2F1BD
:10159000200309DAC2F12003044601FA03F5D04022
:1015A0002843D1409C400CE0C3F12002450020FAC2
:1015B00003F418BF44F0010421FA03F091400C43F6
:1015C000002174F1004550F1000051EB0C01244260
:1015D00030BC7FF47BAF70476146002076E70000A7
:1015E000C1F30A5340F2FE329B1A14DDD3F12003FB
:1015F0004FEAE17208DDC90241EA505141F0004072
:10160000D84080185040704703F2E13010B1D24307
:1016100082F000407047002070470000C11768B199
:101620004840401AB0FA80F29040D21CC907C2F577
:10163000846241EA025202EBD0214005704700006B
:1016400070B44FF0004591EA030F40F10D836B40F9
:10165000841A71EB030603D2001BB14112197341C6
:101660004FF4001C1CEB410F34BF7CEB430442E001
:101670000C0DA4EB1356352E4FDC45EAC323DB0AD1
:1016800045EAC121C912B6F120050DDD63FA05F660
:10169000EB4086EA0305124218BF45F00105C01869
:1016A00051F100010CD213E062FA06F5F240554008
:1016B000F3415A40B340F3405A408018594107D390
:1016C00049085FEA30005FEA350528BF45F00105AB
:1016D00001F58011420875F1004250F1000041EB24
:1016E00004514E0016F5001F70BC38BF7047002033
:1016F000090D090570471CEB410F10D252EA430651
:101700000BD0BCEB410F05D80C0DAB43661E342E3D
:10171000B6DD02E0AB438018594170BC704770BC25
:1017200070470000F0B540F2FF7581EA030C0CF041
:10173000004C15EA11541DBF15EA1357AC42AF42D5
:10174000E5E0BC41C1F31301C3F31303801A9941CF
:1017500043F4801304D2641E40004941801859416B
:10176000C90241EA5051B1FBF3F603FB1611A2FB8B
:101770000675D7EBC020A94102D2761E80185941C8
:10178000C90241EA5051B1FBF3FE03FB1E11A2FB5B
:101790000E75D7EBC020A94103D2AEF1010E80181F
:1017A0005941890241EA9051760546EA8E2EB1FBF5
:1017B000F3F603FB1611A2FB0675D7EB8020A941B7
:1017C00002D2761E80185941C90241EA50514EEAB0
:1017D000060EB1FBF3F603FB1611A2FB0675D7EB61
:1017E000C020A94102D2761E80185941C90241EA9F
:1017F0005051B1FBF3F703FB1711A2FB0735D3EBF5
:10180000C020A94167F100070CBF004247F0010763
:1018100066F3D5274FEA1E31B80814F5806412DD4F
:10182000BD0775F1004250EB0E5051EB045111F51C
:10183000801F5CBF41EA0C01F0BD4CF07F6141F0BC
:10184000E0410020F0BDBD076D0840EA0E5041F4B4
:101850008011D4F10104B4F120060ADAC4F12006A3
:101860000200E04001FA06F3E1401843B24015439C
:101870000EE0342C13DCC6F1200445EA40056D0867
:1018800020FA06F2154321FA06F0A1400D4300218B
:1018900075F1004250F1000051EB0C01F0BD002049
:1018A0005FEA0C01F0BDCFB992185B41B3FA83F740
:1018B00004BFB2FA82F6BF190B3FB7F120062FBF63
:1018C00002FA06F3BB40C7F1200622FA06F638BF3B
:1018D0003343BA401CB1E419641E33E77F4231F050
:1018E0000041B1FA81F404BFB0FA80F6A4190B3CB0
:1018F000B4F120062FBF00FA06F1A140C4F1200682
:1019000020FA06F638BF3143A0403C1B1AE7AC4230
:101910001ABF05EA1357AF4212E050EA41061CBF56
:1019200052EA4306BFE750EA4107304661461CBF12
:1019300041EA0551F0BD52EA430C08BFC143F0BD76
:1019400000204FF4001616EB410F98BF16EB430F23
:1019500008BF16EB410F24BFC14305E016EB430F50
:101960000CBF61464CEA0551F0BD0000400D49181E
:1019700040EA81200CD2490DA1F58061491C40F05C
:10198000004005DBD1F11F0154BFC840C0177047AC
:1019900000207047014648B1B0FA80F18840C91C68
:1019A000C1F58461090501EBD021400570470000B5
:1019B000B0B581EA030C0CF0004C40F2FF7515EA5B
:1019C00011541DBF15EA1357AC42AF4239E0E41978
:1019D00023EA455343F48013C90241F0004141EA30
:1019E000505EC7021100A7FB020200284FF0000062
:1019F000EEFB01204FF00001E3FB072118BF42F08E
:101A00000102401800214941E3FB0E01A4F5806466
:101A10000F0302D252004041494154F101046CDDF0
:101A2000470872F1004250F1000051EB0451A1F55A
:101A300080115CBF41EA0C01B0BD4CEA05510020A9
:101A4000B0BD05EA1357AC4214BFAF4241E050EAC3
:101A5000410E1CBF52EA430E02E061460020B0BDB9
:101A600024423C441BD15FEA070EF6D0090302BFB3
:101A700001460020AEF1140EB1FA81F7AEEB070477
:101A800001FA07FE0C37C7F1200100FA07F7C8403A
:101A90004EEA000E23EA455343F48013A2E733F0E5
:101AA0000043B3FA83F704BFB2FA82FE77440B3FD8
:101AB000E41BB7F1200E2FBF02FA0EF3BB40C7F1B3
:101AC000200E22FA0EFE38BF43EA0E03BA40641C11
:101AD00082E750EA410E14BF52EA430E6FF0000154
:101AE0004FF4001717EB430F8ABF194617EB410F4E
:101AF000B5E74CEA05510020B0BDD4F10104B4F1C2
:101B000020070FDAC4F12007520828BF42F0010273
:101B100010FA07F501FA07F7E1BF2A43E04038431E
:101B2000E1400FE0352C98DCC7F1200452EA400276
:101B300020FA07F218BF42F0010231FA07F0A14083
:101B40000A43002172F1004250F1000051EB0C01F8
:101B5000B0BD80B5FFF772FB006C02BDD3BBD9B13D
:101B6000B2F5803F5BD2022A1ED98C46B1FBF2F15E
:101B700002FB11C31B0443EA1043B3FBF2FC02FB5C
:101B80001C3380B240EA0343B3FBF2F002FB103295
:101B900040EA0C4000237047022A05D98446B0FB76
:101BA000F2F002FB10C270474AB105D100F0010209
:101BB00049085FEA3000704700220023704700F0B8
:101BC00009B90B000200002100207047F7D3002262
:101BD00000237047904271EB030CF2D370B5B1FA59
:101BE00081F4B3FA83F52C1BA340C4F1200532FA2B
:101BF00005F63343A2405FF00046E64002E05B0892
:101C00005FEA3202841A71EB030524BF204629469D
:101C10007641F4D302000B003000002170BD70B596
:101C2000B1FA81F4B2FA82F5C4F120046419B4F176
:101C30002006DAD3B2405FF00044F440002502E011
:101C400052085FEA3303C61A71EB020E24BF304616
:101C5000714664416D41F3D302000B00200029005E
:101C600070BD012000F0B8B8841A71EB030604D2ED
:101C70006E40001BB141121973414FF4001C1CEB64
:101C8000410F34BF7CEB430683E00C0DA4EB1356ED
:101C9000362E00F37C80012E45EAC32341DC43EA63
:101CA000525312BFD20292025B08240545EAC121B9
:101CB00041EA5051D2EBC020994125D407D1B0FA66
:101CC00080F610FA06F162D00020203608E0B1FA62
:101CD00081F6B140C6F1200220FA02F21143B04071
:101CE0004FEAF474B4EB465434F001064FEA74043E
:101CF0000AD8D6F50016760D04F00044F04061FADB
:101D000006F25040F1404840C00A40EA415021F0FC
:101D1000004128BF5FEA500550F1000044EBD1219B
:101D200035E0DB0A45EAC121C90AB6F120050EDD1E
:101D300042EA0242120CC5F1200603FA06F6EB4015
:101D400042EA06056D42984161F100010DE062FA38
:101D500006F5F240554063FA06FC82EA0C02F340B5
:101D60005A406D42904161EB030111F4801F05D18F
:101D7000641E620502D06D004041494121F480118A
:101D8000430875F1004350F1000041EB045170BC71
:101D900070471CEB410F15D223F0004352EA430673
:101DA0000BD04FEA4C0CBCEB410F04D80C0D661E57
:101DB000342EB7DDEBE7801A994150EA410608BF9F
:101DC0000021E4E708BF1CEB430F28BF6FF00001C0
:101DD000DDE700007047000080B5AFF30080024AE5
:101DE00011001820ABBEFBE72600020038B5040046
:101DF00009D004F17C05696809B900F01EF800F00B
:101E000021F8012801D1012032BDA06A08B100F0FB
:101E10002AF800F00AF821F02A01FFE7816000F0BB
:101E20001BF8BDE8324000F004BD2068416821F491
:101E300090414160206881687047002028702046EA
:101E400000F0C8BE24216960206802685208520070
:101E50000260204600F00AB82068016841F00101E4
:101E6000016020467047204600F080BC2DE9F84F05
:101E70000446DFF8E018D4F800A0DFF8DCB8DAF8A0
:101E80000020A068DFF8D4780A4021690243606925
:101E90000A43E1690243606E0A430243CAF8002024
:101EA0000026DAF80410E068DFF8A42821F4405195
:101EB0000143CAF804109245A1691CBF206A01437E
:101EC000DAF80820DFF8540A02401143CAF8081073
:101ED000B046DAF82C10606A090940EA0111CAF824
:101EE0002C10DA454FF400404FF480754FF4007128
:101EF0004FF480624FF400634FF4805C4FF4005E57
:101F00004FF480492FD13F6807F0030BBBF1030F5B
:101F100041D8DFE80BF0023C3A3E012700974FF62C
:101F2000F077D4F81CB0DFF8F8A9BBF5004FDDF866
:101F300000B040F01283BBF1010F0CD0BBF1020FD7
:101F400000F05382BBF1040F00F08C82BBF1080F4C
:101F500000F0C082F3E201F061FA0146606A0028F5
:101F600040F018823FE2DFF8E8B7DA4513D13F6866
:101F700017F440671ED0B7F5806F08D0B7F5006F33
:101F800003D0B7F5406F04D005E0022704E0042732
:101F900002E0082700E01027DFF8B4B7DA45BDD12A
:101FA00047B1022F47D0042F00F08180082F00F0A6
:101FB000B180C0E301F02AFA0146606A58B30128F3
:101FC00008BF022028D0022808BF042024D00328FC
:101FD00008BF062020D0042808BF08201CD00528F0
:101FE00008BF0A2018D0062808BF0C2014D00728E4
:101FF00008BF102010D0082808BF20200CD00928C6
:1020000008BF402008D00A2808BF802004D00B2831
:1020100008BF284600D00120B1FBF0F0002800F0F6
:102020008C83626802EB4201884203D3130383422C
:1020300080F0AF807FE3606AB0B3012808BFDFF8AB
:10204000E008EED0022808BFDFF8D808E9D003285E
:1020500008BFDFF8D408E4D0042808BFDFF8CC08B4
:10206000DFD0052808BFDFF8C808DAD0062808BF87
:10207000DFF8C008D5D0072808BFDFF8BC08D0D0EB
:10208000082808BFDFF8B408CBD0092808BFDFF85C
:10209000B008C6D00A2808BFDFF8A808C1D00B28AE
:1020A00008BF4FF22440BCD0DFF89C08B9E701F02C
:1020B00063F90146606A0028ADD0012808BF0220FC
:1020C000AAD0022808BF0420A6D0032808BF0620F3
:1020D000A2D0042808BF08209ED0052808BF0A20E7
:1020E0009AD0062808BF0C2096D0072808BF1020D9
:1020F00092D0082808BF20208ED0092808BF402091
:102100008AD00A2808BF802086D00B2808BF28461E
:10211000FAD080E7D4F824A0BAF1000FC6D0BAF103
:10212000010F08BF4846C1D0BAF1020F08BF704680
:102130002ED0BAF1030F08BF41F2555028D0BAF1A2
:10214000040F08BF604623D0BAF1050F08BF40F660
:10215000CC401DD0BAF1060F08BF40F6AA2017D018
:10216000BAF1070F08BF184612D0BAF1080F08BF1E
:1021700010460DD0BAF1090F08BF084608D0BAF1D1
:102180000A0F08BF284603D0BAF10B0F00D18020F8
:1021900047E747B1022F36D0042F00F07180082F97
:1021A00000F0A680EAE001F031F90146606A40B330
:1021B000012808BF02251ED0022808BF04251AD016
:1021C000032808BF062516D0042808BF082512D00A
:1021D000052808BF0A250ED0062808BF0C250AD0FE
:1021E000072808BF102506D0082808BF202502D0E0
:1021F000092808BF402572D00A280CBF80250B286B
:102200006DD001256BE0606A002836D0012808BF38
:10221000DFF838672BD0022808BFDFF8346726D0F4
:10222000032808BFDFF82C6721D0042808BFDFF897
:1022300028671CD0052808BFDFF8206717D00628BC
:1022400008BFDFF81C6712D0072808BFDFF8146743
:102250000DD0082808BFDFF8106708D0092808BF8C
:10226000DFF8086703D00A2808BFDFF804677BD0CF
:102270000B2808BFDFF8D06676D0DFF8F86673E089
:1022800001F07AF80146606A40B3012808BF0225D0
:1022900025D0022808BF042521D0032808BF062521
:1022A0001DD0042808BF082519D0052808BF0A2515
:1022B00015D0062808BF0C2511D0072808BF102507
:1022C0000DD0082808BF202509D0092808BF4025BF
:1022D00005D00A280CBF80250B2800D00125626894
:1022E000B1FBF5F6370E5008002110EB06203FE059
:1022F000606A002836D0012808BF4FF4800633D02A
:10230000022808BF4FF400162ED0032808BFDFF8BC
:10231000686629D0042808BF4FF4801624D0052809
:1023200008BFDFF858661FD0062808BFDFF85066E0
:102330001AD0072808BF4FF4002615D0082808BF78
:102340004FF4802610D0092808BF4FF400360BD078
:102350000A2808BF4FF4803606D00B2808BF4FF478
:10236000004601D04FF400060027002116EB520072
:1023700079410023FFF7F2FB064601E04FF0010828
:10238000A6F54070DFF8FC15884280F0D481226801
:10239000D660D2E1012808BF022516D0022808BF66
:1023A000042512D0032808BF06250ED0042808BF34
:1023B00008250AD0052808BF0A2506D0062808BF28
:1023C0000C2502D0072808BF10257AD0082808BF9E
:1023D000202576D0092808BF402572D00A280CBFD6
:1023E00080250B286DD001256BE0606A90B3012831
:1023F0000CBFDFF854A502282ED0032808BFDFF851
:1024000088A529D0042808BFDFF818A524D00528FE
:1024100008BFDFF878A51FD0062808BFDFF808A599
:102420001AD0072808BFDFF804A515D0082808BF70
:10243000DFF804A510D0092808BFDFF800A50BD0ED
:102440000A2808BFDFF8F8A406D00B2808BFDFF879
:10245000F4A401D0DFF818A560680AEB5001B1FBC5
:10246000F0F66AE000F088FF0146606A40B3012898
:1024700008BF022525D0022808BF042521D0032843
:1024800008BF06251DD0042808BF082519D0052837
:1024900008BF0A2515D0062808BF0C2511D007282B
:1024A00008BF10250DD0082808BF202509D009280D
:1024B00008BF402505D00A280CBF80250B2800D076
:1024C00001256068B1FBF5F1420802EB4102B2FB65
:1024D000F0F632E0666A66B3012E2CD0022E08BFF9
:1024E000484628D0032E08BF42F6AA2023D0042E47
:1024F00008BF70461FD0052E08BF41F698101AD0AD
:10250000062E08BF41F2545015D0072E08BF604672
:1025100011D0082E08BF18460DD0092E08BF10464E
:1025200009D00A2E08BF084605D00B2E08BF284642
:1025300001D04FF4803000F013F9B6B201E04FF053
:102540000108A6F11000B84280F0F5803740C6F3CC
:10255000420007432068C760EFE0BBF1010F0AD0DB
:10256000BBF1020F37D0BBF1040F70D0BBF1080FE5
:1025700000F0A480D6E000F051FF0146606A40B34D
:10258000012808BF022512D0022808BF04250ED05A
:10259000032808BF06250AD0042808BF082506D04E
:1025A000052808BF0A2502D0062808BF0C257DD0C3
:1025B000072808BF102579D0082808BF202575D026
:1025C000092808BF402571D00A280CBF80250B2898
:1025D0006CD001256AE0606A98B3012833D00228E4
:1025E00008BFDFF840A32ED0032808BFDFF838A3C8
:1025F00029D0042808BFDFF834A324D0052808BF59
:10260000DFF82CA31FD0062808BFDFF828A31AD0B4
:10261000072808BFDFF820A315D0082808BFDFF877
:102620001CA310D0092808BFDFF814A30BD00A2878
:1026300008BFDFF810A306D00B2808BF4FF2244ACA
:1026400001D0DFF804A360680AEB500133E000F02A
:1026500093FE0146606A40B3012808BF022525D0D9
:10266000022808BF042521D0032808BF06251DD055
:10267000042808BF082519D0052808BF0A2515D049
:10268000062808BF0C2511D0072808BF10250DD03B
:10269000082808BF202509D0092808BF402505D0F3
:1026A0000A280CBF80250B2800D001256068B1FBEB
:1026B000F5F101EB5001B1FBF0F631E0666A6EB363
:1026C000012E08BF484629D0022E08BF704625D0EB
:1026D000032E08BF41F2555020D0042E08BF60469B
:1026E0001CD0052E08BF40F6CC4017D0062E08BFE0
:1026F00040F6AA2012D0072E08BF18460ED0082E8A
:1027000008BF10460AD0092E08BF084606D00A2E78
:1027100008BF284602D00B2E08BF802000F020F80A
:10272000B6B201E04FF00108A6F11000B84202D2A3
:102730002168CE6001E04FF0010804F1680001213A
:10274000002341800180436083604046BDE8F28FF2
:1027500000800040F369FFCF003801408800005836
:10276000616800EB5100B0FBF1F6704790F828105B
:10277000CA0706D502685368C16A23F400330B43C5
:10278000536090F828108A0706D502685368016BD9
:1027900023F480330B43536090F828104A0706D582
:1027A00002685368416B23F480230B43536090F815
:1027B00028100A0706D502685368816B23F400438A
:1027C0000B43536090F82810CA0606D50268936838
:1027D000C16B23F480530B43936090F828108A0652
:1027E00006D502689368016C23F400530B43936091
:1027F00090F828104A0610D502685368416C23F4FB
:1028000080130B435360436CB3F5801F05D15368AD
:10281000816C23F4C0030B43536090F828100A0620
:1028200006D501684A68C06C22F4002202434A605F
:102830007047F8B5044604F17C050020E8606FF0AD
:102840007E4700F09DFE0646206801680A0708D50D
:102850000097334600224FF40011204600F016F88E
:1028600060B9206801684A070AD5009733460022FC
:102870004FF48001204600F009F808B10320F2BDB2
:1028800020206860A86000202870F2BD2DE9F0418A
:10289000069C05460E4690461F462868C169314091
:1028A000B1420CBF01200020404529D114F1010F95
:1028B000F3D000F065FEC01B844200D35CB92868E9
:1028C000016821F4D071016000F01CF80021017052
:1028D0000320BDE8F081286801684A07DDD5C16999
:1028E0000A05DAD54FF4006101622868026822F413
:1028F000D0720260002200F005F8C1600270E7E7C4
:102900000020E6E72868816849084900816005F1F0
:102910007C0020214160816070470000FFF4FF11BE
:1029200000127A0000093D00AAB0280080841E0031
:10293000006A18005558140040420F0020A10700FB
:1029400090D0030048E801000024F4000000127A4F
:102950000000093D00AAB0280080841E00006A180B
:10296000005558140040420F0020A1070090D003EA
:102970000048E801000024F40055150000CC0C00CC
:1029800000AA0A0000FD0F005461510000D430007D
:10299000DFF8B01201E0DFF8B01281B00A6802433C
:1029A0000A60096808400090009801B07047DFF89D
:1029B0009C12F2E7DFF8980281B0016841F400212F
:1029C0000160006800F40020EDE718B585B000F064
:1029D000E0F82168DFF87C02814211D14FF4005009
:1029E000FFF7D6FF0420FFF7D3FF0220032100905A
:1029F0000191002202926946DFF85C0200F0C6FDF8
:102A000006B010BD0068DFF85412884204BF4FF4CE
:102A10008030FFF7BDBF704781B0006890498842A1
:102A200009D19048026842F480520260006800F4C4
:102A300080500090009801B0704718B585B000F044
:102A4000A8F820688849894C88420CD100F095F894
:102A500012210191012202924FF4407000F016F809
:102A60004FF400100EE0824988420DD100F085F845
:102A700012210191012202924FF4205000F006F839
:102A80004FF40000FFF787FF06B010BD0021009053
:102A90000391042204926946204600F077BD006845
:102AA0007449884204D17448026842F400420260CA
:102AB000704778B585B000F06CF820686F4988429F
:102AC00033D14FF48050FFF772FF0120FFF760FF12
:102AD00000F0B3F8E02000F052F806200021684E24
:102AE000684D7060B160002000F040F831613560E1
:102AF000304600F023FE08B101F05CFAA665B4622E
:102B000005F11400604E3060072171600020102232
:102B100000F02CF8B2603161304600F00FFE08B1D1
:102B200001F048FA6665B4621EE0584988421BD13C
:102B30004FF48040FFF72FFF0120FFF729FF00F03F
:102B40001CF800F07AF84FF4007000F018F800F06C
:102B500074F84FF440400221009001910522049244
:102B60006946424800F012FD06B070BDF060802159
:102B70007061B061F06130627047022008E70221A5
:102B8000009001910522049269464FF0904000F0B8
:102B9000FDBC044614220021684601F01DBA80B530
:102BA00000683B4988420DD14FF40060FFF7FFFEFB
:102BB00000220021192001F033FABDE8024019205B
:102BC00001F04BBAB0F1804F03D1BDE802400120C3
:102BD000E1E601BD30B585B0FFF7DBFF21682D4888
:102BE000814228D14FF48040FFF7E1FEFFF7C5FF97
:102BF00000F023F8C02002210090019107220492E6
:102C000069461A48244D00F0C1FC244828600F2171
:102C1000696000201022E86080216861A861E86195
:102C20002862AA602961284600F088FD08B101F0F9
:102C3000C1F96567AC6205B030BD00220292039213
:102C4000704700004C0000585800005860000058C1
:102C500050000058000004500008004800000650D2
:102C60000030024048000058005400400004004872
:102C7000005C0040002800409000005800300140F7
:102C80002C2300201C0002408C2300200038004030
:102C9000002C014000380140EC23002008000240D5
:102CA0004FF0B040006800F0F000B02888BFB020BE
:102CB0007047DFF868080068000100F0F000704716
:102CC0002DE9F041040067D0207881064FF0B0452F
:102CD00038D5A868E96810F00C0001F0030104D0B1
:102CE0000C2808BF012940F083802868810702D59D
:102CF000E069002850D0FFF7D3FF616A88420CD208
:102D0000084600F0BFFB00281AD12968606A21F04C
:102D1000F001014300F044FA0AE0286820F0F000D6
:102D2000014300F03DFA606A00F0ACFB002807D1D7
:102D300001F0FCF9DFF8E807006801F047FA002825
:102D400040F025822078C10711D5A868E96800F015
:102D50000C00082801F0030103D00C2808BF032948
:102D600076D12868810302D56068002814D02178C4
:102D700088071AD5A868E96800F00C00042801F05B
:102D8000030104D00C2808BF022940F09A8028686B
:102D9000410503D5E068002800F0F98168682169E1
:102DA00020F0FE4040EA016068602168DFF8746747
:102DB00011F0180F00F0FE806069002800F0E98033
:102DC000C806706840F1C880800708D4716841F077
:102DD0000101716000F0D4FB07467068800700F1C4
:102DE000958000F0CDFBC01B0328F6D30320D1E172
:102DF000E069E0B1296841F0010100F0BAFA064645
:102E00002868800705D400F0BBFB801B0328F7D39C
:102E1000ECE72868616A20F0F000084328606868E1
:102E2000216A20F47F4040EA012068608AE7286830
:102E300040084000286000F0A3FB0646286800F028
:102E4000ABF9F3D000F09CFB801B0328F6D3CDE751
:102E50006068B0F5803F04D1286840F48030286075
:102E600011E0B0F5A02F286806D140F4802028603A
:102E7000296841F4803105E020F480302860296819
:102E800021F480212960606860B100F079FB06467A
:102E9000286880033FF56BAF00F072FB801B65284C
:102EA000F6D3A3E700F06CFB06462868400C10F050
:102EB00001003FF45CAF00F063FB801B6528F4D396
:102EC00094E7E06878B1296841F4807100F051FA24
:102ED0000646286840053FF561AF00F051FB801BB6
:102EE0000328F6D382E7286820F48070286000F079
:102EF00047FB06462868800A10F001003FF455AFF2
:102F000000F03EFB801B0328F4D36FE7706840F0AD
:102F1000040000F04EF907467068000705D400F081
:102F20002FFBC01B0428F7D360E77068A16920F469
:102F3000706040EA0120706070684008400000F056
:102F400038F90746706800F027F933D000F018FB15
:102F5000C01B0328F6D349E740F0010000F029F92F
:102F600007467068800705D400F00AFBC01B0328E1
:102F7000F7D33BE7706820F0040070607068C00809
:102F800010F0010016D000F0FBFAC01B0428F5D3A6
:102F90002CE7706820F0040000F00BF90746706819
:102FA000C00810F00100C7D000F0EAFAC01B0428E6
:102FB000F5D31BE7207841074BD5DFF86C753868EF
:102FC000C1050ED401F03EF900F0DAFA8046386807
:102FD000C10506D400F0D4FAA0EB08000328F6D30C
:102FE00004E7A068012804D1306840F00100306097
:102FF00010E00528306806D140F0040030603168E8
:1030000041F0010105E0400840003060316821F0E6
:1030100004013160A06841F2893760B100F0B0FA74
:1030200080463068800714D400F0AAFAA0EB0800AC
:10303000B842F6D3DAE600F0A3FA8046306800F032
:10304000ABF806D000F09CFAA0EB0800B842F5D32C
:10305000CCE62078410620D5A06A0028B0680DD0C3
:1030600040F0010000F07EF90746B068800714D4F4
:1030700000F086FAC01B0328F7D3B7E640084000EB
:1030800000F070F90746B06800F086F805D000F04F
:1030900077FAC01B0328F6D3A8E6E06A002878D0A8
:1030A000A96801F00C010C2950D00228286820F0F2
:1030B0008070286033D100F063FA06462868400E1D
:1030C00010F0010005D000F05BFA801B0328F5D357
:1030D0008CE6E868DFF85414226B0840616B1043FB
:1030E000A26B0843E16B40EA0220226C0843616C4A
:1030F00010430843E860286840F080702860E96861
:1031000041F08051E96000F03BFA044628688001F4
:103110003FD400F035FA001B0328F7D366E6E968D0
:10312000DFF80C0489088900E960E9680140E9607A
:1031300000F026FA04462868400E10F0010028D05E
:1031400000F01EFA001B0328F5D34FE601281ED01D
:10315000E868226B00F00301914202BF00F07001A9
:10316000626B914213D1A26BC0F30621914202BF60
:1031700000F47811E26B914209D1226C00F0606199
:10318000914202BF00F06040616C884201D0012092
:1031900000E00020BDE8F081400810F00100704719
:1031A00029606968206A21F47F4141EA0021696051
:1031B0007047706000F0E4B92DE9F84304008846D8
:1031C00000F0AE80DFF86C5300F0C7F80CD200F0CE
:1031D000CCF8064600F0C1F806D000F0D1F9801B0B
:1031E0000228F7D90320B6E0207881074FF0B046D7
:1031F00011D5B268A06822F0F0020243B26000F07C
:10320000BFF90746B068C00305D400F0B9F9C01B88
:103210000228F7D9E6E72078DFF80073810612D597
:103220003A68606922F0F00202433A6000F0A8F9BF
:1032300081463868800306D400F0A2F9A0EB0900AB
:103240000228F6D9CEE72078410613D53868A1695F
:103250000009000140EA1110386000F091F9814640
:103260003868C00306D400F08BF9A0EB09000228EF
:10327000F6D9B7E72078410711D5B268E06822F4A3
:10328000E0620243B26000F07BF90746B068800359
:1032900005D400F075F9C01B0228F7D9A2E7207801
:1032A000010711D5B068216920F4605040EAC100DF
:1032B00000F058F80746B068400305D400F060F904
:1032C000C01B0228F7D98DE72078C1072AD560688E
:1032D000022818D13168890322D5B268920840EAE1
:1032E000820000F03FF80746B068616800F00C000B
:1032F000B0EB810F16D000F043F9C01B41F28931C9
:103300008842F1D36EE7032802D13168890103E0D6
:103310000028316802D18907DFD401E04905DCD4F7
:10332000012018E0286800F0070080450BD200F06B
:103330001CF8044600F011F805D000F021F9001B3C
:103340000228F7D94EE700F0F1FE00F092FFBDE849
:10335000F24300F03BBFBDE8F283286800F00700AD
:1033600040457047B06000F00BB92968C90848EAC9
:10337000C101296000F004B938B54FF0B0446F4D79
:10338000A16811F00C0106D1FFF78AFCC0F303100D
:1033900055F8200032BD0429694A05D0082969483A
:1033A00004D12168C90222D5104632BDE16801F07E
:1033B0000301022904D0032904D12168C90207D5D9
:1033C000104605E0FFF76CFCC0F3031055F8200031
:1033D000E168E268E368C1F306214843C2F30211E1
:1033E000491C5B0FB0FBF1F05B1CB0FBF3F032BD8E
:1033F00080B5FFF7C1FF5049FFE7534A0968C1F3A1
:10340000031152F82110B0FBF1F002BD80B5FFF7B7
:10341000EFFF00F010F8C1F3022106E080B5FFF7DE
:10342000E7FF00F008F8C1F3C22112F8211001F003
:103430001F01C84002BD4049444A096870476F22D5
:1034400002603D4A136803F00C034360136803F005
:10345000F0038360136803F4E063C360126802F44E
:10346000605202612D4A136803F0F0034361126851
:10347000120102F0F00282612E48026802F0070297
:103480000A60704770B52D49B1282EBFCC6AC0F3D1
:10349000031051F82040FFF70CFC054600F0F8FE41
:1034A0002949C5F3031251F82210294AB4FBF1F15E
:1034B0005FF00004B1FBF2F1B0F5007F2CA22046D2
:1034C00020D100BF23A353F820508D4217D2401CB7
:1034D0000328F8D9174D2868C00844EAC0002860BE
:1034E00000F04EF80646286800F00700A04212D00F
:1034F00000F046F8801B0328F5D3032070BD52F876
:103500002040E7E717A353F820508D42F7D2401C24
:103510000328F8D3DEE7002070BD00000801005842
:103520005410002090000058000400588C80C111F5
:10353000FFFFFEEE0040005808000058D0A200082F
:103540000024F4000048E80190A2000884A60008C6
:1035500040420F001200000024000000360000006E
:1035600040000000060000000C00000010000000F9
:103570000000000001000000020000000400000044
:1035800001480068704700BF501000202DE9F04F3F
:103590004FF0000C624A634BDFF88C814FF00F094B
:1035A00082460F4633E0614DAA4514BF0725042526
:1035B0008D40254348F82E50C1431C6801EA040E93
:1035C0007C68E50348BF40EA0E0EC3F800E05C6883
:1035D00001EA040E7C68A50348BF40EA0E0EC3F85A
:1035E00004E0146801EA040E7C68E50248BF40EA82
:1035F0000E0EC2F800E0546801EA040E79688C02ED
:1036000048BF40EA0E0EC2F804E00CF1010C396824
:1036100031FA0CF000F07C80012000FA0CFE1EEA6A
:103620000100F2D07C68022C18BF122C4FEA8C01EA
:1036300010D14FEADC040AEB840401F01C05266A71
:1036400009FA05FB26EA0B06D7F810B00BFA05F5C8
:10365000354325624FEA4C040325DAF8006097F8F9
:1036600004B0A540ED430BF0030B2E400BFA04FB16
:103670004BEA0606CAF800607E68012E18BF022ECB
:1036800003D0112E18BF122E17D1DAF80860D7F820
:103690000CB02E400BFA04FB4BEA0606CAF8086091
:1036A000DAF8046026EA0E0E7E68C6F3001606FA03
:1036B0000CF646EA0E06CAF80460DAF80C603540EB
:1036C000BE6806FA04F42C43CAF80C407C68E40097
:1036D0009BD54FEA9C0E58F82E5001F00C0109FAC8
:1036E00001F425EA0404BAF1904F08BF00250ED07A
:1036F0000F4DAA4508BF012509D00E4DAA4508BFA8
:10370000022504D00C4DAA457FF44DAF03254FE7A9
:10371000BDE8F08F0AB18161704781627047000097
:1037200000080058800800580800014000100048B8
:103730000004004800080048000C004870B5040070
:1037400001D1012070BD2268DFF8D4319A4204F122
:1037500024050BD2DFF8CC0181181426B1FBF6F159
:103760008900DFF8C4312962EB610AE0DFF8BC01AF
:1037700081181423B1FBF3F18900DFF8B401296249
:10378000E861022169701368A068E1686FF30E13A5
:10379000034320690B4361690343A0690B43E1695B
:1037A0000343206A0B4303431360204600F08CF868
:1037B000A068B0F5804F04BF00216160696A20797C
:1037C00000F014F838B1052805D2204600F099F829
:1037D00000F012F803E0002028636863A86300216A
:1037E000A961012068702970002070BD0860A96A75
:1037F000E86A486060687047296B00200860696B60
:10380000A86B48607047F8B500F124010423CA6929
:1038100014680268156891F8206006F01C0603FA27
:1038200006F73C4210D06F070ED51468A50603D4E6
:10383000146824F00404146000F03DF8C9680029FD
:1038400038D0BDE8F4400847022303FA06F73C42AB
:1038500013D0AF0711D51468A50605D4146824F059
:103860000A04146001224A7000F025F800220A7050
:103870008968F9B1BDE8F4400847082303FA06F661
:10388000344217D02B0715D5146824F00E041460A9
:10389000012291F82030CC6903F01C039A40626049
:1038A00001228A614A7000220A70096911B1BDE8DB
:1038B000F4400847F1BD91F82020CC6902F01C02C9
:1038C000934063607047000010B5416C0268144B70
:1038D00089089A4239BF174C04EB8101164B03EB60
:1038E0008101816402F0FF02083A1421B2FBF1F178
:1038F000012301F01C01114AC26403FA01F10165C0
:1039000010BD01790E4A0F4B836502EB81024265BF
:10391000491E012201F003018A40C2657047000080
:1039200008040240F8FFFDBF00000240F8FBFDBFA5
:1039300000040240000802401C08024080080240C7
:10394000FC08024040090240DFF8FC1501E0DFF806
:10395000FC1581B00A6802430A60096808400090BB
:10396000009801B0704700002DE9F84F88B000F0D2
:1039700071FCDFF8DC45606C40010ED5606CC00066
:103980000BD400F05FFC00F05DFC206C40F4803054
:103990002064206C20F48030206440F203172068FB
:1039A000DFF8B065DFF8B085DFF8B09540F480103F
:1039B0002060216801F4801100913F210098DFF818
:1039C000A00541604161016841F47C110160026918
:1039D00042F47C120261016841F03F01016002691A
:1039E00042F03F02026100F019FADFF87805016841
:1039F00000220260036903F05003036100F022FC1F
:103A000000F020FC206C40F4004020640020DFF82F
:103A1000584504F534750F212E606860A96047F69B
:103A2000FF70E86000212961A961E961284600F082
:103A300041FCCA20706253217162FF21B068C00846
:103A4000C000B06071626846142100F0D1FC04200F
:103A5000FFF77DFF0220FFF77AFF0120FFF777FFD6
:103A60001020FFF774FF0820FFF771FF00225C2190
:103A70004046FFF74FFE002239464FF09040FFF7D7
:103A800049FEDFF8E864002232213046FFF742FEAB
:103A9000002210214846FFF73DFE4FF470500321ED
:103AA00000F0ACF90120DFF8C81400F0A7F95C21A0
:103AB00000F0ACF94046FFF769FD012000220097B5
:103AC00001900292039269464FF09040FFF75EFD2D
:103AD00048F21C4000F084F94FF09040FFF756FD8B
:103AE0002020DFF8901400F089F9052000F078F923
:103AF0003046FFF74BFD4FF4A0500021009001919C
:103B0000029130466946FFF741FD322100F07EF90F
:103B10003046FFF73BFD102100F078F94846FFF7EB
:103B200035FD032000210090019102916946DFF8E4
:103B30004804FFF72BFD0420FFF706FF0120FFF7E5
:103B400003FF002200210B2000F06AFA0B2000F096
:103B500084FA002200210C2000F062FA0C2000F010
:103B60007CFA002200210D2000F05AFA0D2000F00E
:103B700074FA1821684600F03BFCDFF8000420606E
:103B80000021042060616160E1602161218304F112
:103B9000300800200022012184F82000A062E062A9
:103BA00088F80000C8F80400A260E16188F80820E5
:103BB000204600F043FCDFF8C81300910622019272
:103BC000002102917F220392042104910022059298
:103BD0006946204600F0F6FC04F50E77E948EA4E07
:103BE00038607E6001200021F860B9603961796138
:103BF000B961F9613962384600F09EFE002138460D
:103C000000F0F2FE0021384600F003FFDF48F864C0
:103C10003E65002101207965B865F96539667966E8
:103C2000B966F96604F52177384600F085FE002173
:103C3000384600F0D9FE0021384600F0EAFE04F1D3
:103C40006807D348386200210020B86238634FF417
:103C500082791820F8634FF4E06A0720F8647963EA
:103C6000082078654FF4007B39647964B96439655C
:103C7000C7F82490C7F82CA0C7F838B004F1880022
:103C800000F0F2FE04F1EC06C2483060C6F8049081
:103C90000021B160C6F80CA031617161C6F818B09E
:103CA0001820F06131627162B1620720F062316305
:103CB0000820706304F53D79304600F0D5FE1421EC
:103CC00003A800F095FB00F092F8B3496962AA627C
:103CD000EA622A636A63AA63EA63484600F01CFF4B
:103CE000042103910022049203A9484600F0FBFF3F
:103CF00000200090019002906946484601F0C2F809
:103D0000142103A800F074FB00F071F84FF080411B
:103D10006966AA66EA662A676A67EA6704F54D7506
:103D2000284600F0F9FE042103911022049203A911
:103D3000284600F0D8FF00210091029128466946EC
:103D400001F0A0F80121284601F0C2F804F5BA7587
:103D50009248A8634FF4E131E96300202864686465
:103D6000A8640C2128656865A865E8652866E9648B
:103D700004F5D6794846FEF739F80021484601F0A7
:103D8000F9F80021484601F000F9484601F0D4F85E
:103D90008348C8F8340000210120F8613980396176
:103DA000796104F1640001F04FF901F08BF97D486D
:103DB00070660021B1664FF48020F0665FF000006D
:103DC0007DA13167B0672860686004F5A87001F0D4
:103DD000A3F901F0C5F94FF0FF3001F02FFAFAE72F
:103DE00003210090019100220292694670476846C3
:103DF00000210022002380E80E007047009001910E
:103E00000022029269464046FFF7C0BB00910122A2
:103E1000002102910391019269467047F8B5AEB056
:103E200048211CA800F0E4FA1C2101A800F0E0FAE7
:103E3000502108A800F0DCFA5B4C206820F0180044
:103E400020604FF480325948016821F4C06141F488
:103E5000007101600F21006800F4C06000904FF411
:103E6000003500981C911D9201214FF480721E9123
:103E70001F924021052220912192022103222791A5
:103E800028920021082229912A924FF000564FF0E3
:103E900000772B952D962C971CA8FEF711FF032178
:103EA00002916F20802101900022069103920492DA
:103EB00005920792042101A8FFF77EF900224FF036
:103EC000B040016841F4801101600E920621099111
:103ED0004FF440124FF088510D9111924FF4403140
:103EE00010914FF080524FF08061159117924FF46E
:103EF00040714FF480421891199243F60D5008908A
:103F0000022100221A911B920A950B970C9608A881
:103F100001F07CFA00F096F900F094F9206840F086
:103F20000100206020688007FCD5616821F44041D1
:103F300041F4804161602FB0F0BD00681C498842A7
:103F400008BF01F0E1BB7047480000584C00005822
:103F500050000058002800400008004800100048A9
:103F6000040C0058800800584C130020000400483E
:103F70000000211000001110000C00480000045047
:103F80000400600800540040BC7D7010005C0040DC
:103F90000030014000380040002C01400038014052
:103FA0000030024000000650900000580004005805
:103FB00000440140704700000000000000000000C5
:103FC00000000000000000000000000000000000F1
:103FD000000000000000000010B5044610460A462C
:103FE0000146204601F098FB204610BD0901020061
:103FF00002D4324881547047314B02F00F021A4408
:1040000002F8041C70472F4B19684FF6FF0200029C
:10401000114000F4E06008432B49084318607047E2
:1040200070B5284B1C68C4F302230124C3F10705B3
:10403000052D2EBF0F2504FA05F56D1E1E1D072E3A
:1040400034BF0023DB1E2940994004FA03F3BDE886
:1040500070405B1E1A401143C8E7010007D40122DB
:1040600000F01F01194B8A40400943F82020704797
:1040700001000BD4012200F01F01154B8A404009BA
:1040800043F82020BFF34F8FBFF36F8F70470100BD
:1040900007D4012200F01F010E4B8A40400943F86B
:1040A00020207047010007D4012200F01F010A4BB5
:1040B0008A40400943F820207047000000E400E0F7
:1040C00018ED00E00CED00E00000FA0500E100E072
:1040D00080E100E000E200E080E200E03249002000
:1040E00008604FF0B0413148026842F4700202604B
:1040F0004FF4E022086840F0010008608A600B6815
:104100002B4803402B480B60026822F00502026036
:10411000002243685B085B0043602748C860086171
:10412000086820F4802008608A61704710B54FF05D
:10413000B04222491068C0F3031001EB8003186CF1
:10414000936803F00C03042B04D0082B04D00C2B31
:1041500004D01CE01A481AE01A4818E0D368D46862
:10416000C4F3021403F00303641C022B08BF1448B9
:1041700002D0032B08BF1348B0FBF4F3D068D46817
:10418000C0F30620640F4343641CB3FBF4F00E4BF2
:10419000186090681A68C0F3031051F82000B2FB51
:1041A000F0F0186010BD000008ED00E088ED00E0C0
:1041B000FBFEF6FA940000580010042290A20008BA
:1041C0000024F4000048E8015C10002018B5014606
:1041D00089B000221920FFF723FF1920FFF73DFFC8
:1041E0001448154C016841F40031016001A90068D0
:1041F00000F400300090009802A8FFF720F9FFF7C4
:104200000DF90E490E4B2160B0FBF3F0401E40F259
:10421000E73260600021E2602161A160204600F089
:104220007BFC18B9204600F084FC00E001200AB0B5
:1042300010BD0000600000582C2500200044014003
:1042400040420F000248016841F4807101607047EC
:1042500000040058032010B5FFF7D5FE0020FFF73B
:10426000B5FF0024002814BF0124FEF7A3FB20465D
:1042700010BD0548406870470448FFE7016841F0F9
:10428000010101607047000050100020042004E08C
:10429000DFF81800006800F4C0607047DFF8100015
:1042A000FFE7016841F48061016070470004005835
:1042B0000404005870B5040049D094F8210028B9CE
:1042C000002184F820102046FEF7E9FB00F04EF8AC
:1042D00053202168486200F052F8FF2510B100F029
:1042E0003FF834E02168DFF89C008A6802408A6069
:1042F0002268936866682169A0690E4306433343C8
:1043000093602068E168016120680169A26841EA60
:10431000024101612068C16821F08001C16020680C
:10432000C16C89088900C1642168CA6CE36960694D
:1043300003431A43CA6421688868810609D400F0DF
:104340001CF830B100F00CF8002084F820000120A7
:1043500070BD20684562012184F82110002070BDE5
:1043600020684562042184F821107047022084F8F7
:104370002100CA21226851627047204604E020468D
:104380001BE00000BFFF8FFF38B504462068C168FE
:1043900021F0A001C160FFF7F3F805462068C1686D
:1043A000880608D4FFF7ECF8401B40F2E931884258
:1043B000F4D3032032BD002032BD38B50446206856
:1043C000C1684A0612D44FF0FF31C160FFF7D8F838
:1043D00005462068C168480608D4FFF7D1F8401B9D
:1043E00040F2E9318842F4D3032032BD002032BDCF
:1043F000002201F09BB90000603000EB81000068F2
:1044000000F0F8407047603000EB8100016821F057
:1044100000410A4302607047CB0D10B5143003F021
:1044200004031818090D01F01F01036807248C40CC
:10443000A34302FA01F11943016010BDF8B500254C
:10444000044600950CB90120F2BD04F150067068D5
:1044500020B92046FEF7B9FAB56035702168886842
:10446000800004D58A68DFF8340402408A6021683D
:104470008868C00015D48A68DFF82404024042F03E
:1044800080528A60DFF81C14DFF81C240868B0FB37
:10449000F2F2009202E00098401E0090009800287E
:1044A000F9D120688168C90008D4726842F010020E
:1044B00072600125B16841F00101B16081687268E4
:1044C000D30678D4490776D4726822F4807242F019
:1044D000020272608068C0070CD4DFF8D01308684D
:1044E000C00707D4DFF8C8130A68606822F47C129A
:1044F00002430A6004F13002607E5368E16894F878
:10450000207043EA4033A0680B430343012F43EA82
:10451000074303D1606A401E43EA4043A06A20B1CA
:10452000E16A00F47070084303432168DFF88403F4
:10453000CF6807403B43CB6021688B6888685B0786
:1045400024D4000722D4CB68DFF86C03277E034015
:10455000107843EA873343EA4003CB60107A01289E
:104560000FD123681F69D16810696FF38A070F4361
:104570005169074390690F43074347F001071F61E3
:1045800004E02068016949084900016120690128A7
:104590002068016B05D1E2690909521E42EA011146
:1045A00001E0090909010163706820F0020040F090
:1045B0000100706004E0706840F010007060012538
:1045C0002846F2BDF8B50646002406F150050F4610
:1045D00000942978012901D10220F2BD0120287020
:1045E00030688168490700F150817A683968930919
:1045F000303003F00C03181802F01F02D0F800C08E
:104600001F239340C1F384612CEA030301FA02F2F1
:104610001A430260306882688168520721D4090712
:104620001FD4BA683968FFF7F7FE3068C1683A6985
:10463000042A17D060303B6800EB820CDFF8D80208
:10464000DCF80020024003F0F8431343C9087A69FC
:10465000480000F006008240134343F00043CCF8CA
:10466000003076E00021FFF7C7FE400330682146A6
:1046700004D1FFF7C1FEC0F3846003E0FFF7BCFE86
:1046800000F028F939684A030EBFC1F3846191FA3A
:10469000A1F1B1FA81F1884204D1306800220021F1
:1046A000FFF7B1FE00F012F9400304D100F00EF95B
:1046B000C0F3846003E000F009F900F00BF93968F9
:1046C0004A030EBFC1F3846191FAA1F1B1FA81F1FD
:1046D000884204D1306800220121FFF794FE00F0E7
:1046E000F1F8400304D100F0EDF8C0F3846003E07A
:1046F00000F0E8F800F0EEF839684A030EBFC1F3A5
:10470000846191FAA1F1B1FA81F1884204D1306853
:1047100000220221FFF777FE00F0D0F8400304D119
:1047200000F0CCF8C0F3846003E000F0C7F800F0BC
:10473000D1F839684A030EBFC1F3846191FAA1F13F
:10474000B1FA81F1884204D1306800220321FFF7D9
:104750005AFE31688868C0075BD4FA683B68D1F8B4
:10476000B0C0DFF8B8E102F01802C3F312002EFA6D
:1047700002F22CEA000013400343C1F8B030F8689D
:10478000DFF89C11884230D1386841030EBFC0F376
:10479000846290FAA0F1B1FA81F2521C012102F078
:1047A0001F020A2A0DD200F09AF89B0602F01F029F
:1047B000401C03F0F843914000F01F0000F0A5F802
:1047C0000FE000F08CF8401C9B0602F01F0200F086
:1047D0001F0003F0F84391400A3800F096F841F0CA
:1047E0000071BA683068FFF717FE3B68DFF83401E4
:1047F00003424FD02D4A2E4801681268D70701F0B6
:10480000E07142D4DFF82071DFF82021BB421BD1D8
:104810000B023FD4366896423CD10268224B22F00C
:10482000E072114341F4000101600C201D490A6847
:10483000B2FBF3F343430093009800281EBF009897
:10484000401E0090F8D125E0DFF8E470BB420BD1A8
:10485000CB011FD4366896421CD1026822F0E07268
:10486000114341F080710EE0DFF8C870BB4211D1F6
:104870004B020FD4366896420CD1026822F0E072E7
:10488000114341F48001016004E0686840F02000B9
:1048900068600124002028702046F2BDC0FFFF5F41
:1048A000C0FFFF7F5C100020400D03000800045093
:1048B0000803045007C0F0FFFDBFFFFF306803216D
:1048C000FFF79ABD30680221FFF796BD30680121DD
:1048D000FFF792BD90FAA0F0B0FA80F07047420363
:1048E00004D1C0F38462134610460BE090FAA0F2A4
:1048F000B2FA82F390FAA0F290FAA0F0B2FA82F241
:10490000B0FA80F05B1C521C7047194300EB40006A
:1049100041EA00517047000000F0FF03FFFF07006D
:1049200000007F4000000880000052C700000450D3
:10493000000084CB0100008038B5040001D10120C3
:1049400032BD04F14005687820B900212970204665
:10495000FEF773F800F040F86068216820F070609E
:1049600008612068816821F400418160E068216865
:104970000128A0680CBF40F4004040F40440886067
:10498000E068022803D120684FF40061416020688C
:10499000416841F0007141F4004141602068C16804
:1049A00021F40041C16060692169A2690143206866
:1049B00041EA0221C160206AE16922680143116075
:1049C0002068016841F00101016000206860202139
:1049D00069702063A87032BD242068702068016867
:1049E000490849000160704730B500F14002537832
:1049F000202B0CD11478012C09D000F01DF824F4E0
:104A000080541C6003681D682943196020E002205F
:104A100030BD30B500F140025378202B0AD1147814
:104A2000012C07D000F008F824F4706444EA012453
:104A30001C600DE0022030BD01231370242454704B
:104A400003681D686D086D001D6003681C68704771
:104A50000068016841F001010160202050700021D0
:104A60001170002030BD000070B5040001D101209C
:104A700070BD0020A06204F15C05687820B90021B7
:104A800029702046FEF715F80220687000F03DF806
:104A9000E168B1F5E06F04D90022B1F5706F03D180
:104AA00004E04FF4805201D00020A062206B30B9A6
:104AB000B1F5E06F87BF02202063012121636368A5
:104AC000A06821692668034360690B43A169034319
:104AD00001F40071E0690B43216A0343A06A0B43B0
:104AE00003433360A369606A616B1B0C03F004032A
:104AF0000343E0680B4303431A4323685A600021D1
:104B0000696001206870002070BD2068016821F094
:104B1000400101607047000038B5040001D1012058
:104B200032BD00F028F818B900F021F8FEF737F888
:104B300013E00168C86840F00100C8608A68DFF8C7
:104B400040000240062A18BFB2F5803F03D0086833
:104B500040F0010008600020704702206870211DAD
:104B6000206800F0ECF801206870002032BD0021C0
:104B700029702046704704F13C05687870470000B2
:104B80000700010010B50446206801698A0715D5A1
:104B9000C1688A0712D56FF00201016101222277F4
:104BA000806910F0030F204602D000F0D8FD03E02A
:104BB00000F0D6FD00F094F800202077206801690D
:104BC0004A0715D5C1684A0712D56FF00401016183
:104BD00002222277806910F4407F204602D000F044
:104BE000BEFD03E000F0BCFD00F07AF80020207765
:104BF000206801690A0715D5C1680A0712D56FF048
:104C00000801016104222277C06910F0030F2046D9
:104C100002D000F0A4FD03E000F0A2FD00F060F877
:104C20000020207720680169CA0615D5C168CA0628
:104C300012D56FF01001016108222277C06910F4CB
:104C4000407F204602D000F08AFD03E000F088FD9E
:104C500000F046F80020207720680169CA0708D5CF
:104C6000C168CA0705D56FF0010101612046FFF751
:104C700064F9206801690A0608D5C1680A0605D5E5
:104C80006FF080010161204600F06BFD2068016932
:104C9000CA0508D5C1680A0605D56FF4807101619F
:104CA000204600F05FFD206801694A0608D5C1680A
:104CB0004A0605D56FF040010161204600F053FD22
:104CC000206801698A060AD5C1688A0607D56FF08F
:104CD000200101612046BDE8104000F045BD10BD37
:104CE000204600F042BD38B500F00CF801D102209A
:104CF00032BD00F00DF800B110E02868C16821F065
:104D0000400110E0054605F13C0420780128704779
:104D10000120207002226270284640E0012060706D
:104D20000021217032BDC1602868C16821F4804132
:104D3000C1600120607000212170002032BD70B57B
:104D4000DFF818610368DFF81841DFF81851B04246
:104D500018BFB0F1804F01BF23F070034A681343BE
:104D6000B04205D0B0F1804F1CBFA842A04203D191
:104D7000CA6823F4407313434A6923F08003134342
:104D80000360B0428B68C3621CBFA842A0420A689D
:104D9000826201D1096901630122426170BD38B5A7
:104DA00000682D4A85684C682A4B154025430A68DF
:104DB0001D40154385604C68402C0BD0502C1CD0F6
:104DC000602C1FD0702C21D10B698A68C96800F053
:104DD0004BF81BE00A68052A01D1012032BD026AA6
:104DE000036A5B085B0003628369096923F0F003CF
:104DF00043EA01138361026208E00A69896800F0EE
:104E000007F803E00A69896800F011F8002032BD54
:104E100010B5036A046A64086400046223F00A039C
:104E2000846924F0F00444EA0214846126E010B599
:104E3000036A23F0100303628369046A23F4704356
:104E400043EA023324F0A004836144EA01140462BB
:104E500010BD0000F8FFFEFF8FFFCFFF002C0140C8
:104E6000004801400044014010B5846824F47F44A8
:104E70002143114341EA0321816010BD19430162BE
:104E800010BD000070B500F13C031A78012A01D171
:104E9000022070BD01221A7002245C70254A046849
:104EA0006568A668944203D14A6825F470051543E5
:104EB00025F070058A6809680D43656026F0800654
:104EC000006816438660012159700020187070BD7B
:104ED00070B590F83C20012A01D1022070BD01225A
:104EE00080F83C200368134E1C6D1D6EB34218BF42
:104EF000B3F1804F0DD125F4E03511F4E03F1CBF34
:104F000001F4E0321543B3421D6608BF6FF013028F
:104F100006D0B3F1804F0CBF6FF00F026FF00302A9
:104F2000144021F4E03121431965002180F83C1040
:104F3000002070BD002C014010B500F17C010A7802
:104F4000012A01D1022010BD01220A7024234B60E6
:104F500002681368146864086400146000224266E2
:104F600023F000530068036020224A6000230B7086
:104F7000002010BD70B500F01FF801D1022070BDF7
:104F800000F020F822F0604209E070B500F014F85B
:104F900001D1022070BD00F015F822F060621143CB
:104FA0008160204600F01CF82068066020216960BE
:104FB00000222A70002070BD044604F17C05287888
:104FC000012870470120287024226A602068066842
:104FD0000268520852000260206882687047000030
:104FE000FFB500BF14A200BF15A6D2E9003402A984
:104FF000C1E90034D6E90071CDE90071416E11B903
:105000000121012213E001688A688968520E02F0CA
:105010000702490F02AC655CA45C1DF801101DF885
:105020000220ED00E40095FBF1F194FBF2F2683010
:1050300041800280FFBD0000010101030701000063
:10504000080402040801010110B5040020D0607FAB
:1050500020B9002121772046FDF7DEFC022161778F
:10506000207970B92068164941612068816821F073
:1050700018018160607968B920684FF0FF310161E3
:105080000BE0E268A168204600F070FB0028F1D038
:10509000012010BD21682069086121688A68606963
:1050A00022F0600202438A6021688A68A06922F0C7
:1050B000800202438A6001216177002010BD000058
:1050C000B71DC10410B5104C10490022204600F055
:1050D00073FB08B1FEF76EFF0D49204600F07FFB21
:1050E00008B1FEF767FF0B49204600F0C5FD08B187
:1050F000FEF760FF204600F07AFB18B1BDE81040D3
:10510000FEF758BF10BD00BFC01600208011002060
:105110006C1000207011002038B5040001D101206E
:1051200032BD04F14C05687820B900212970204671
:10513000FDF768FC2268DFF82410136860680B40F4
:10514000A168034360690B430343136000226A6054
:10515000AA60012068702064002032BD99FFFAFF28
:1051600010B52148214C88B0016841F4004101602C
:1051700000F0AAFD1E49002000F0DDFEFFF77CF8DC
:105180001C48016841F480310160026C42F48032B5
:10519000026401F086F80121012000F09AFD01F07F
:1051A000BFF8154A00214FF4807000F0A9F804F20E
:1051B0003C51009169460FF245020FF24500019201
:1051C00001F09AF904F25471029104F5C96240F2B7
:1051D0003C5103920591049402A801F024F901F0D6
:1051E0009DF808B010BD0000080000582000032002
:1051F0001C160020900800583B650008704700000E
:1052000080B501F048F90021012000F062FDBDE801
:10521000014001F00BBA70474FF0FF3000F00EB8BC
:1052200000214FF4807000F078B8022000F097B8A9
:10523000022000F09CB87047704700002DE9F84349
:10524000554CDFF85881A5692840A0614FF001094D
:1052500031E0491C54F831000642FAD004EBC10693
:10526000184071681040014204BF4FF0FF32726075
:105270007768384000F094F8606209FA00F08743DC
:105280007760EFF3108172B6626A206909FA02F260
:10529000D24310402061022004EBC00353F8086C95
:1052A0001640401E43F8086CF6D181F31088606AFE
:1052B00058F82010884763692069A2691840104295
:1052C00007D0E069216A084203D1002103EA0206FF
:1052D000C0E701F051FCEFF3108872B621696069F4
:1052E000A2690140114201BFE069216A0842FFF74B
:1052F00092FF88F3108801F040FCA561BDE8F183BE
:1053000038B51446EFF3108572B600F049F823491A
:1053100041F8204085F3108831BD30B5EFF310829D
:1053200072B61D4B1C6904431C6153F8315028436D
:1053300043F8310082F3108830BDEFF3108172B66C
:10534000154A536923EA000005E0EFF3108172B6B5
:10535000114A53691843506181F310887047EFF385
:10536000108172B60C4AD3691843D061F4E770B566
:10537000094C656A266A2062012101FA05F502E0FE
:105380002846FFF749FF216AE0690842F8D08843C0
:105390002662E06170BD0000281000202C22002051
:1053A00002460020110C090404BF1020120412F060
:1053B0007F4F04BF0830120205A312F0704F04BFE4
:1053C000001D1201120FC0F11F00995C401A7047B6
:1053D00004030202010101010000000000000000BE
:1053E000DFF820130A68030903F47F2300019A43BE
:1053F00000F47F2000F082B9DFF808231368010C65
:1054000023EA014343EA0043136070472DE9F84360
:10541000054600242878DFF8EC624106A0464FF0EC
:10542000B04742D5286B70B1B0F5800F06D0B0F50B
:10543000000F18BFB0F5400F2DD034E0F96841F4EB
:105440008031F96028E0386820F080603860FEF72D
:1054500097F8814600F045F907D0FEF791F8A0EBE8
:1054600009000228F6D9032415E000F02BF9A968F9
:1054700020F4781000F03AF981463868000106D42B
:10548000FEF77EF8A0EB09000228F6D9EBE73869B1
:105490006969084338613CB93168286B21F44001DF
:1054A0000143316001E00124A0462868010531D59F
:1054B000B06800F44078286C80452AD0FEF7C2FE20
:1054C000B8F1000FB16805D1286C21F44071014397
:1054D000B1601EE0B06840F48030B06021F44071EB
:1054E000B06820F48030B060286C0143B160B068CF
:1054F000C0070ED5FEF744F88046B068800708D490
:10550000FEF73EF8A0EB080041F289318842F4D35F
:105510000324A0462878C10705D53268A8699208F7
:1055200040EA820232602978880705D53168E86947
:1055300021F44061014331602978C80644BFA86A5C
:10554000FFF75AFF2878810644BFE86AFFF754FF47
:105550002878410744BF286AFFF742FF28780107EF
:1055600044BF686AFFF73CFF2868C10531D532683F
:10557000686B22F0406202433260696BB1F1006FE8
:1055800000F09AF8686BB0F1806F22D100F0A3F8B8
:10559000044600F0A6F807D0FDF7F2FF001B022832
:1055A000F7D94FF0030814E000F08CF8E96820F018
:1055B000606000F09BF804463868000105D4FDF7F0
:1055C000DFFF001B0228F7D9EBE738696969084358
:1055D0003861286881051CD5A86BB0F1804F18BFD1
:1055E000B0F1004F00D020B9316821F040410843AC
:1055F00009E0316821F04041316020F0805032688C
:1056000022F0406210433060A86BB0F1C05F00F040
:1056100053F82868410534D53268E86B22F04052CF
:1056200002433260E96BB1F1005F03D1F86840F4E6
:105630008030F860E86BB0F1805F22D100F04BF869
:10564000044600F04EF807D0FDF79AFF001B022831
:10565000F7D94FF0030814E000F034F8296920F07E
:10566000604000F043F804463868000105D4FDF7B7
:1056700087FF001B0228F7D9EBE7386969690843FF
:1056800038612868C10405D5F268686C22F440428C
:105690000243F260296888040BD5796AE86C21F02E
:1056A000300101437962796AA86C890840EA810176
:1056B00079624046BDE8F28303D1F86840F080701B
:1056C000F86070473869696820F4FE4040EA0120BC
:1056D000386138697047396821F080613960FDF7B9
:1056E0004FBF3868C00E10F00100704708433861A2
:1056F000386840F080603860FDF742BF10430860B2
:10570000704700008800005802490A6888688218BB
:105710000A607047501000204018491C1CBFB1F1AE
:10572000010100F8012DF9D17047000000B500BF5C
:10573000130096469446103928BFA0E80C50FAD8BA
:105740005FEA417C28BF0CC048BF40F8042BC90762
:1057500028BF20F8022B48BF00F8012B00BD70477E
:10576000704770477047704770477047F0B5044600
:1057700000201F252B465D1E2BB105F01F0321FACB
:1057800003F6F707F6D5130007D0082A10D0102A21
:105790000BD0182A0ED1072D0CD2236859619968B5
:1057A00021F018010A439A60F0BD082DF5D301E0FD
:1057B000102DF2D30120F0BD38B508B9022032BD5A
:1057C00000F52774A3690BB10025A56101B16161E2
:1057D00001212170027001F052FA002032BD024610
:1057E000002011B1C2F8B41270470220704780B592
:1057F00001F087FA002002BD10B5D0F8B4220224CF
:105800001AB11268904700B90024204610BD80B537
:10581000D0F8B42253680AE138B5044604F52A7575
:10582000284601F0E5FC04F5257001210160428B5A
:10583000017D426011F01F0003D002280BD005D378
:105840000EE02946204601F0DBFA0DE0294620460D
:1058500001F010FC08E02946204601F035FC03E089
:1058600001F0800100F040F8002032BD38B5044658
:1058700010460A0004F5257329D1196803291ED1A1
:1058800004F5B0714A680D68AA420BD2AD1A0D60DA
:10589000954238BF2A46014692B2204601F005FDE6
:1058A000002032BD196A086928B1187A032802D18C
:1058B000096920468847204601F0FFFCF0E70529EA
:1058C000EED100201860002100F00EF8E8E71A6A17
:1058D000906930B1187A032803D192692046904725
:1058E000DEE7022032BD8021204601F023BA38B520
:1058F00004460800134604F5257543D1286802289C
:1059000033D1226A616A914207D2521A2262194641
:1059100092B2204601F0B7FC11E0E269B2FBF1F06F
:1059200001FB102090B98A4210D3686882420DD2E0
:1059300000220021204601F0A6FC00206860002320
:1059400000220021204601F01BFA14E0296AC868F1
:1059500028B1287A032802D1C96820468847FFF772
:10596000C2FF204601F0B0FC05E0042818BF002863
:1059700001D1FFF7B8FF287B012804BF002129735C
:10598000002032BD2A6A506930B1287A032803D139
:10599000526920469047F3E7022032BD38B50446ED
:1059A00040230022002101F0B4F904F5AC7001217C
:1059B00040220160C260402300228021204601F085
:1059C000A8F90120402104F52572A06161621072DE
:1059D0000021116061600025506A156128B1126ACA
:1059E00061685368C9B220469847002032BD0174EF
:1059F0000020704700F52770042201784170027082
:105A00000020704700F527700178042904BF417811
:105A100001700020704780B500F527710A78032ACD
:105A200003D18969C96901B18847002002BD98473F
:105A3000002002BD70B505460026287C40B94FF411
:105A4000007300F03AF80122EA624FF4007305E0B7
:105A5000402300F032F80120E862402302220121B5
:105A6000284601F056F90120C5F86C0108230322ED
:105A70008221284601F04DF9012028644FF4077077
:105A800001F0A8F9040005F52E7008BF0126046096
:105A900011D040680168884704F5017006614661CD
:105AA0000268287C00280CBF4FF4007340230121BA
:105AB000284601F065F9304670BD02228121284652
:105AC00001F027B910B50446812101F02DF900221B
:105AD000E2620121204601F027F90020C4F86C01A0
